{
  "contractName": "ProjectManager",
  "abi": [
    {
      "constant": false,
      "inputs": [
        {
          "name": "_documentLocation",
          "type": "string"
        }
      ],
      "name": "createProject",
      "outputs": [
        {
          "name": "",
          "type": "uint256"
        }
      ],
      "payable": false,
      "stateMutability": "nonpayable",
      "type": "function"
    },
    {
      "constant": false,
      "inputs": [
        {
          "name": "_id",
          "type": "uint256"
        },
        {
          "name": "_hash",
          "type": "uint256"
        },
        {
          "name": "_state",
          "type": "string"
        }
      ],
      "name": "notorizeProject",
      "outputs": [],
      "payable": true,
      "stateMutability": "payable",
      "type": "function"
    },
    {
      "constant": false,
      "inputs": [
        {
          "name": "_notorizer",
          "type": "address"
        }
      ],
      "name": "removeNotorizers",
      "outputs": [
        {
          "name": "",
          "type": "uint256"
        }
      ],
      "payable": false,
      "stateMutability": "nonpayable",
      "type": "function"
    },
    {
      "constant": true,
      "inputs": [
        {
          "name": "_id",
          "type": "uint256"
        }
      ],
      "name": "getHash",
      "outputs": [
        {
          "name": "",
          "type": "uint256"
        }
      ],
      "payable": false,
      "stateMutability": "view",
      "type": "function"
    },
    {
      "constant": true,
      "inputs": [],
      "name": "getNumOfProject",
      "outputs": [
        {
          "name": "",
          "type": "uint256"
        }
      ],
      "payable": false,
      "stateMutability": "view",
      "type": "function"
    },
    {
      "constant": true,
      "inputs": [],
      "name": "getNumOfNotorizer",
      "outputs": [
        {
          "name": "",
          "type": "uint256"
        }
      ],
      "payable": false,
      "stateMutability": "view",
      "type": "function"
    },
    {
      "constant": true,
      "inputs": [],
      "name": "getManager",
      "outputs": [
        {
          "name": "",
          "type": "address"
        }
      ],
      "payable": false,
      "stateMutability": "view",
      "type": "function"
    },
    {
      "constant": false,
      "inputs": [
        {
          "name": "_notorizer",
          "type": "address"
        }
      ],
      "name": "addNotorizers",
      "outputs": [
        {
          "name": "",
          "type": "uint256"
        }
      ],
      "payable": false,
      "stateMutability": "nonpayable",
      "type": "function"
    },
    {
      "inputs": [],
      "payable": false,
      "stateMutability": "nonpayable",
      "type": "constructor"
    },
    {
      "anonymous": false,
      "inputs": [
        {
          "indexed": true,
          "name": "id",
          "type": "uint256"
        },
        {
          "indexed": true,
          "name": "owner",
          "type": "address"
        }
      ],
      "name": "ProjectCreated",
      "type": "event"
    },
    {
      "anonymous": false,
      "inputs": [
        {
          "indexed": true,
          "name": "id",
          "type": "uint256"
        },
        {
          "indexed": false,
          "name": "state",
          "type": "string"
        },
        {
          "indexed": true,
          "name": "notorizer",
          "type": "address"
        },
        {
          "indexed": false,
          "name": "timestamp",
          "type": "uint256"
        }
      ],
      "name": "ProjectNotorized",
      "type": "event"
    }
  ],
  "bytecode": "0x606060405260016003556000600455341561001957600080fd5b336000806101000a81548173ffffffffffffffffffffffffffffffffffffffff021916908373ffffffffffffffffffffffffffffffffffffffff1602179055506109d8806100686000396000f30060606040526004361061008e576000357c0100000000000000000000000000000000000000000000000000000000900463ffffffff16806315ee4df1146100935780635b107166146101045780636370ea87146101685780636b2fafa9146101b557806376a20d6e146101ec578063b4b275eb14610215578063d50095841461023e578063ebc38f1214610293575b600080fd5b341561009e57600080fd5b6100ee600480803590602001908201803590602001908080601f016020809104026020016040519081016040528093929190818152602001838380828437820191505050505050919050506102e0565b6040518082815260200191505060405180910390f35b610166600480803590602001909190803590602001909190803590602001908201803590602001908080601f016020809104026020016040519081016040528093929190818152602001838380828437820191505050505050919050506104ad565b005b341561017357600080fd5b61019f600480803573ffffffffffffffffffffffffffffffffffffffff1690602001909190505061064d565b6040518082815260200191505060405180910390f35b34156101c057600080fd5b6101d6600480803590602001909190505061071e565b6040518082815260200191505060405180910390f35b34156101f757600080fd5b6101ff610776565b6040518082815260200191505060405180910390f35b341561022057600080fd5b610228610783565b6040518082815260200191505060405180910390f35b341561024957600080fd5b61025161078d565b604051808273ffffffffffffffffffffffffffffffffffffffff1673ffffffffffffffffffffffffffffffffffffffff16815260200191505060405180910390f35b341561029e57600080fd5b6102ca600480803573ffffffffffffffffffffffffffffffffffffffff169060200190919050506107b6565b6040518082815260200191505060405180910390f35b6000806000809054906101000a900473ffffffffffffffffffffffffffffffffffffffff1673ffffffffffffffffffffffffffffffffffffffff163373ffffffffffffffffffffffffffffffffffffffff1614151561033e57600080fd5b600354905060c060405190810160405280828152602001600081526020013373ffffffffffffffffffffffffffffffffffffffff16815260200184815260200160206040519081016040528060008152508152602001600081525060016000838152602001908152602001600020600082015181600001556020820151816001015560408201518160020160006101000a81548173ffffffffffffffffffffffffffffffffffffffff021916908373ffffffffffffffffffffffffffffffffffffffff1602179055506060820151816003019080519060200190610423929190610887565b506080820151816004019080519060200190610440929190610887565b5060a082015181600501559050506003600081548092919060010191905055503373ffffffffffffffffffffffffffffffffffffffff16817f63c92f9505d420bff631cb9df33be952bdc11e2118da36a850b43e6bcc4ce4de60405160405180910390a380915050919050565b6000600260003373ffffffffffffffffffffffffffffffffffffffff1673ffffffffffffffffffffffffffffffffffffffff16815260200190815260200160002060009054906101000a900460ff16151561050457fe5b600060016000868152602001908152602001600020600001541415151561052757fe5b8260016000868152602001908152602001600020600101819055508160016000868152602001908152602001600020600401908051906020019061056c929190610907565b504290508060016000868152602001908152602001600020600501819055503373ffffffffffffffffffffffffffffffffffffffff16847f668d3e143f8d66babc1d663d43c749062705ea85a5fb69bd8dbefb1e276edecd84846040518080602001838152602001828103825284818151815260200191508051906020019080838360005b8381101561060c5780820151818401526020810190506105f1565b50505050905090810190601f1680156106395780820380516001836020036101000a031916815260200191505b50935050505060405180910390a350505050565b60008060009054906101000a900473ffffffffffffffffffffffffffffffffffffffff1673ffffffffffffffffffffffffffffffffffffffff163373ffffffffffffffffffffffffffffffffffffffff161415156106aa57600080fd5b6000600260008473ffffffffffffffffffffffffffffffffffffffff1673ffffffffffffffffffffffffffffffffffffffff16815260200190815260200160002060006101000a81548160ff0219169083151502179055506004600081548092919060010191905055506004549050919050565b6000806003548310151561073157600080fd5b600060016000858152602001908152602001600020600101541415151561075457fe5b6001600084815260200190815260200160002060010154905080915050919050565b6000600160035403905090565b6000600454905090565b60008060009054906101000a900473ffffffffffffffffffffffffffffffffffffffff16905090565b60008060009054906101000a900473ffffffffffffffffffffffffffffffffffffffff1673ffffffffffffffffffffffffffffffffffffffff163373ffffffffffffffffffffffffffffffffffffffff1614151561081357600080fd5b6001600260008473ffffffffffffffffffffffffffffffffffffffff1673ffffffffffffffffffffffffffffffffffffffff16815260200190815260200160002060006101000a81548160ff0219169083151502179055506004600081548092919060010191905055506004549050919050565b828054600181600116156101000203166002900490600052602060002090601f016020900481019282601f106108c857805160ff19168380011785556108f6565b828001600101855582156108f6579182015b828111156108f55782518255916020019190600101906108da565b5b5090506109039190610987565b5090565b828054600181600116156101000203166002900490600052602060002090601f016020900481019282601f1061094857805160ff1916838001178555610976565b82800160010185558215610976579182015b8281111561097557825182559160200191906001019061095a565b5b5090506109839190610987565b5090565b6109a991905b808211156109a557600081600090555060010161098d565b5090565b905600a165627a7a723058203276aad6c9ecfef04828eedff376976b692b8e559c4ec7bf812090655cb784770029",
  "source": "pragma solidity ^0.4.0;\n\n//import \"./HasManager.sol\";\n// import \"./ProjectAdapter.sol\";\n\ncontract HasManager {\n    address manager;\n\n    function getManager() public view returns (address) {\n      return manager;\n    }\n\n    modifier onlyManager {\n        require(msg.sender == manager);\n        _;\n    }\n}\n\ninterface ProjectAdapter{\n    function createProject(string _documentLocation) public returns (uint);\n    function addNotorizers(address _notorizer) public returns (uint);\n    function removeNotorizers(address _notorizer) public returns (uint);\n\n    function notorizeProject(uint _id, uint _hash, string _state) public payable;\n    function getHash(uint _id) public view returns (uint);\n    function getNumOfProject() public view returns (uint);\n    function getNumOfNotorizer() public view returns (uint);\n\n    // Note that _documentLocation is not published in this event for security reason.\n    event ProjectCreated(uint indexed id, address indexed owner);\n    event ProjectNotorized(uint indexed id, string state, address indexed notorizer, uint timestamp);\n}\n\ncontract ProjectManager is HasManager, ProjectAdapter {\n    /*\n     Project is a struct instead of a contract.  This is to keep overhead low and there is\n     not enough functionalities in Project to make it a contract.  In any case, I use an\n     interface to insulate client from it.\n    */\n    struct Project {\n        uint id;\n        uint hash;\n        address owner;\n        string documentLocation;\n        string state; // state is a string but it should be Enum or some other type.\n        uint timestamp;\n    }\n\n    mapping(uint => Project) projects;\n    mapping(address => bool) myNotorizers;\n\n    uint projectCounter = 1;\n    uint numNotorizers = 0;\n\n    // constructor -\n    function ProjectManager() public {\n        manager = msg.sender;\n    }\n\n    function createProject(string _documentLocation)\n        public\n        onlyManager\n        returns (uint) {\n        uint id = projectCounter;\n        // storage is initialized to 0 by default.\n        projects[id] = Project(id, 0, msg.sender, _documentLocation, \"\", 0);\n        projectCounter++;\n        ProjectCreated(id, msg.sender);\n        return id;\n    }\n\n    function addNotorizers(address _notorizer)\n        public\n        onlyManager\n        returns (uint) {\n        myNotorizers[_notorizer] = true;\n        numNotorizers++;\n        return numNotorizers;\n    }\n\n    function removeNotorizers(address _notorizer)\n        public\n        onlyManager\n        returns (uint){\n        myNotorizers[_notorizer] = false;\n        numNotorizers++;\n        return numNotorizers;\n    }\n\n    function notorizeProject(uint _id, uint _hash, string _state)\n        public\n        payable {\n        // Only approved accounts can notorize project.\n        assert(myNotorizers[msg.sender]);\n        assert(projects[_id].id != 0);\n        projects[_id].hash = _hash;\n        projects[_id].state = _state;\n        uint t = now;\n        projects[_id].timestamp = t;\n        ProjectNotorized(_id, _state, msg.sender, t);\n    }\n\n    /*\n      As per discussed in skype, anyone should be able to view to KISS.\n    */\n    function getHash(uint _id) public view returns (uint) {\n      require(_id < projectCounter);\n      assert(projects[_id].hash != 0);\n      uint h = projects[_id].hash;\n      return h;\n    }\n\n    function getNumOfProject() public view returns (uint) {\n      return projectCounter-1;\n    }\n\n    function getNumOfNotorizer() public view returns (uint) {\n      return numNotorizers;\n    }\n}\n",
  "sourcePath": "/Users/yeoenggu/Projects/solidity/legalfab/contracts/ProjectManager.sol",
  "compiler": {
    "name": "solc",
    "version": "0.4.18+commit.9cf6e910.Emscripten.clang"
  },
  "schemaVersion": "1.0.1",
  "updatedAt": "2018-01-30T12:47:04.730Z"
}